{
  "_format": "hh-sol-artifact-1",
  "contractName": "Twitter",
  "sourceName": "contracts/Twitter.sol",
  "abi": [
    {
      "inputs": [],
      "stateMutability": "nonpayable",
      "type": "constructor"
    },
    {
      "anonymous": false,
      "inputs": [
        {
          "indexed": false,
          "internalType": "address",
          "name": "creater",
          "type": "address"
        },
        {
          "indexed": false,
          "internalType": "uint256",
          "name": "tweetId",
          "type": "uint256"
        }
      ],
      "name": "AddTweet",
      "type": "event"
    },
    {
      "anonymous": false,
      "inputs": [
        {
          "indexed": false,
          "internalType": "address",
          "name": "remover",
          "type": "address"
        },
        {
          "indexed": false,
          "internalType": "uint256",
          "name": "tweetId",
          "type": "uint256"
        }
      ],
      "name": "DeleteTweet",
      "type": "event"
    },
    {
      "inputs": [
        {
          "internalType": "string",
          "name": "tweetText",
          "type": "string"
        },
        {
          "internalType": "bool",
          "name": "isDeleted",
          "type": "bool"
        }
      ],
      "name": "addTweet",
      "outputs": [],
      "stateMutability": "nonpayable",
      "type": "function"
    },
    {
      "inputs": [
        {
          "internalType": "uint256",
          "name": "tweetId",
          "type": "uint256"
        },
        {
          "internalType": "bool",
          "name": "isDeleted",
          "type": "bool"
        }
      ],
      "name": "deleteTweet",
      "outputs": [],
      "stateMutability": "nonpayable",
      "type": "function"
    },
    {
      "inputs": [],
      "name": "getAllTweets",
      "outputs": [
        {
          "components": [
            {
              "internalType": "uint256",
              "name": "id",
              "type": "uint256"
            },
            {
              "internalType": "address",
              "name": "userName",
              "type": "address"
            },
            {
              "internalType": "string",
              "name": "tweetText",
              "type": "string"
            },
            {
              "internalType": "bool",
              "name": "isDeleted",
              "type": "bool"
            }
          ],
          "internalType": "struct Twitter.Tweet[]",
          "name": "",
          "type": "tuple[]"
        }
      ],
      "stateMutability": "view",
      "type": "function"
    },
    {
      "inputs": [],
      "name": "getMyTweets",
      "outputs": [
        {
          "components": [
            {
              "internalType": "uint256",
              "name": "id",
              "type": "uint256"
            },
            {
              "internalType": "address",
              "name": "userName",
              "type": "address"
            },
            {
              "internalType": "string",
              "name": "tweetText",
              "type": "string"
            },
            {
              "internalType": "bool",
              "name": "isDeleted",
              "type": "bool"
            }
          ],
          "internalType": "struct Twitter.Tweet[]",
          "name": "",
          "type": "tuple[]"
        }
      ],
      "stateMutability": "view",
      "type": "function"
    }
  ],
  "bytecode": "0x608060405234801561001057600080fd5b506112dc806100206000396000f3fe608060405234801561001057600080fd5b506004361061004c5760003560e01c80635325613514610051578063aefedbc21461006f578063e580339f1461008d578063f0312a37146100a9575b600080fd5b6100596100c5565b6040516100669190610bff565b60405180910390f35b61007761039a565b6040516100849190610bff565b60405180910390f35b6100a760048036038101906100a29190610d96565b6106e6565b005b6100c360048036038101906100be9190610e1e565b61086c565b005b60606000808054905067ffffffffffffffff8111156100e7576100e6610c3f565b5b60405190808252806020026020018201604052801561012057816020015b61010d610995565b8152602001906001900390816101055790505b5090506000805b6000805490508110156102e657600015156000828154811061014c5761014b610e5e565b5b906000526020600020906004020160030160009054906101000a900460ff161515036102d9576000818154811061018657610185610e5e565b5b9060005260206000209060040201604051806080016040529081600082015481526020016001820160009054906101000a900473ffffffffffffffffffffffffffffffffffffffff1673ffffffffffffffffffffffffffffffffffffffff1673ffffffffffffffffffffffffffffffffffffffff16815260200160028201805461020f90610ebc565b80601f016020809104026020016040519081016040528092919081815260200182805461023b90610ebc565b80156102885780601f1061025d57610100808354040283529160200191610288565b820191906000526020600020905b81548152906001019060200180831161026b57829003601f168201915b505050505081526020016003820160009054906101000a900460ff1615151515815250508383815181106102bf576102be610e5e565b5b602002602001018190525081806102d590610f1c565b9250505b8080600101915050610127565b5060008167ffffffffffffffff81111561030357610302610c3f565b5b60405190808252806020026020018201604052801561033c57816020015b610329610995565b8152602001906001900390816103215790505b50905060005b828110156103905783818151811061035d5761035c610e5e565b5b602002602001015182828151811061037857610377610e5e565b5b60200260200101819052508080600101915050610342565b5080935050505090565b60606000808054905067ffffffffffffffff8111156103bc576103bb610c3f565b5b6040519080825280602002602001820160405280156103f557816020015b6103e2610995565b8152602001906001900390816103da5790505b5090506000805b600080549050811015610632573373ffffffffffffffffffffffffffffffffffffffff166000828154811061043457610433610e5e565b5b906000526020600020906004020160010160009054906101000a900473ffffffffffffffffffffffffffffffffffffffff1673ffffffffffffffffffffffffffffffffffffffff161480156104b957506000818154811061049857610497610e5e565b5b906000526020600020906004020160030160009054906101000a900460ff16155b1561062557600081815481106104d2576104d1610e5e565b5b9060005260206000209060040201604051806080016040529081600082015481526020016001820160009054906101000a900473ffffffffffffffffffffffffffffffffffffffff1673ffffffffffffffffffffffffffffffffffffffff1673ffffffffffffffffffffffffffffffffffffffff16815260200160028201805461055b90610ebc565b80601f016020809104026020016040519081016040528092919081815260200182805461058790610ebc565b80156105d45780601f106105a9576101008083540402835291602001916105d4565b820191906000526020600020905b8154815290600101906020018083116105b757829003601f168201915b505050505081526020016003820160009054906101000a900460ff16151515158152505083838151811061060b5761060a610e5e565b5b6020026020010181905250818061062190610f1c565b9250505b80806001019150506103fc565b5060008167ffffffffffffffff81111561064f5761064e610c3f565b5b60405190808252806020026020018201604052801561068857816020015b610675610995565b81526020019060019003908161066d5790505b50905060005b828110156106dc578381815181106106a9576106a8610e5e565b5b60200260200101518282815181106106c4576106c3610e5e565b5b6020026020010181905250808060010191505061068e565b5080935050505090565b600080805490509050600060405180608001604052808381526020013373ffffffffffffffffffffffffffffffffffffffff16815260200185815260200184151581525090806001815401808255809150506001900390600052602060002090600402016000909190919091506000820151816000015560208201518160010160006101000a81548173ffffffffffffffffffffffffffffffffffffffff021916908373ffffffffffffffffffffffffffffffffffffffff16021790555060408201518160020190816107b99190611110565b5060608201518160030160006101000a81548160ff0219169083151502179055505050336001600083815260200190815260200160002060006101000a81548173ffffffffffffffffffffffffffffffffffffffff021916908373ffffffffffffffffffffffffffffffffffffffff1602179055507f8b2db9b424f26463510ef5b02c16f2465836b52081b51d2112ec76102053bdea338260405161085f929190611200565b60405180910390a1505050565b6000805490508211156108b4576040517f08c379a00000000000000000000000000000000000000000000000000000000081526004016108ab90611286565b60405180910390fd5b3373ffffffffffffffffffffffffffffffffffffffff166001600084815260200190815260200160002060009054906101000a900473ffffffffffffffffffffffffffffffffffffffff1673ffffffffffffffffffffffffffffffffffffffff160361099157806000838154811061092f5761092e610e5e565b5b906000526020600020906004020160030160006101000a81548160ff0219169083151502179055507f0a3c603c75e5590afc30b6142c559d84c79ce628b0ecdc9452d0fabe761a5d3e3383604051610988929190611200565b60405180910390a15b5050565b604051806080016040528060008152602001600073ffffffffffffffffffffffffffffffffffffffff168152602001606081526020016000151581525090565b600081519050919050565b600082825260208201905092915050565b6000819050602082019050919050565b6000819050919050565b610a1481610a01565b82525050565b600073ffffffffffffffffffffffffffffffffffffffff82169050919050565b6000610a4582610a1a565b9050919050565b610a5581610a3a565b82525050565b600081519050919050565b600082825260208201905092915050565b60005b83811015610a95578082015181840152602081019050610a7a565b60008484015250505050565b6000601f19601f8301169050919050565b6000610abd82610a5b565b610ac78185610a66565b9350610ad7818560208601610a77565b610ae081610aa1565b840191505092915050565b60008115159050919050565b610b0081610aeb565b82525050565b6000608083016000830151610b1e6000860182610a0b565b506020830151610b316020860182610a4c565b5060408301518482036040860152610b498282610ab2565b9150506060830151610b5e6060860182610af7565b508091505092915050565b6000610b758383610b06565b905092915050565b6000602082019050919050565b6000610b95826109d5565b610b9f81856109e0565b935083602082028501610bb1856109f1565b8060005b85811015610bed5784840389528151610bce8582610b69565b9450610bd983610b7d565b925060208a01995050600181019050610bb5565b50829750879550505050505092915050565b60006020820190508181036000830152610c198184610b8a565b905092915050565b6000604051905090565b600080fd5b600080fd5b600080fd5b600080fd5b7f4e487b7100000000000000000000000000000000000000000000000000000000600052604160045260246000fd5b610c7782610aa1565b810181811067ffffffffffffffff82111715610c9657610c95610c3f565b5b80604052505050565b6000610ca9610c21565b9050610cb58282610c6e565b919050565b600067ffffffffffffffff821115610cd557610cd4610c3f565b5b610cde82610aa1565b9050602081019050919050565b82818337600083830152505050565b6000610d0d610d0884610cba565b610c9f565b905082815260208101848484011115610d2957610d28610c3a565b5b610d34848285610ceb565b509392505050565b600082601f830112610d5157610d50610c35565b5b8135610d61848260208601610cfa565b91505092915050565b610d7381610aeb565b8114610d7e57600080fd5b50565b600081359050610d9081610d6a565b92915050565b60008060408385031215610dad57610dac610c2b565b5b600083013567ffffffffffffffff811115610dcb57610dca610c30565b5b610dd785828601610d3c565b9250506020610de885828601610d81565b9150509250929050565b610dfb81610a01565b8114610e0657600080fd5b50565b600081359050610e1881610df2565b92915050565b60008060408385031215610e3557610e34610c2b565b5b6000610e4385828601610e09565b9250506020610e5485828601610d81565b9150509250929050565b7f4e487b7100000000000000000000000000000000000000000000000000000000600052603260045260246000fd5b7f4e487b7100000000000000000000000000000000000000000000000000000000600052602260045260246000fd5b60006002820490506001821680610ed457607f821691505b602082108103610ee757610ee6610e8d565b5b50919050565b7f4e487b7100000000000000000000000000000000000000000000000000000000600052601160045260246000fd5b6000610f2782610a01565b91507fffffffffffffffffffffffffffffffffffffffffffffffffffffffffffffffff8203610f5957610f58610eed565b5b600182019050919050565b60008190508160005260206000209050919050565b60006020601f8301049050919050565b600082821b905092915050565b600060088302610fc67fffffffffffffffffffffffffffffffffffffffffffffffffffffffffffffffff82610f89565b610fd08683610f89565b95508019841693508086168417925050509392505050565b6000819050919050565b600061100d61100861100384610a01565b610fe8565b610a01565b9050919050565b6000819050919050565b61102783610ff2565b61103b61103382611014565b848454610f96565b825550505050565b600090565b611050611043565b61105b81848461101e565b505050565b5b8181101561107f57611074600082611048565b600181019050611061565b5050565b601f8211156110c45761109581610f64565b61109e84610f79565b810160208510156110ad578190505b6110c16110b985610f79565b830182611060565b50505b505050565b600082821c905092915050565b60006110e7600019846008026110c9565b1980831691505092915050565b600061110083836110d6565b9150826002028217905092915050565b61111982610a5b565b67ffffffffffffffff81111561113257611131610c3f565b5b61113c8254610ebc565b611147828285611083565b600060209050601f83116001811461117a5760008415611168578287015190505b61117285826110f4565b8655506111da565b601f19841661118886610f64565b60005b828110156111b05784890151825560018201915060208501945060208101905061118b565b868310156111cd57848901516111c9601f8916826110d6565b8355505b6001600288020188555050505b505050505050565b6111eb81610a3a565b82525050565b6111fa81610a01565b82525050565b600060408201905061121560008301856111e2565b61122260208301846111f1565b9392505050565b600082825260208201905092915050565b7f506c6561736520656e74657220612076616c6964207477656574496400000000600082015250565b6000611270601c83611229565b915061127b8261123a565b602082019050919050565b6000602082019050818103600083015261129f81611263565b905091905056fea264697066735822122018b5410c87c36d57a3854c656942d62267c7e0a4438b1d1d8ca0c1b1a367761a64736f6c63430008180033",
  "linkReferences": {},
  "deployedLinkReferences": {}
}